{
  "_format": "hh-sol-artifact-1",
  "contractName": "Collection",
  "sourceName": "contracts/Collection.sol",
  "abi": [
    {
      "inputs": [
        {
          "internalType": "string",
          "name": "collectionName",
          "type": "string"
        },
        {
          "internalType": "string",
          "name": "collectionSymbol",
          "type": "string"
        },
        {
          "internalType": "address",
          "name": "creator",
          "type": "address"
        }
      ],
      "stateMutability": "nonpayable",
      "type": "constructor"
    },
    {
      "anonymous": false,
      "inputs": [
        {
          "indexed": true,
          "internalType": "address",
          "name": "owner",
          "type": "address"
        },
        {
          "indexed": true,
          "internalType": "address",
          "name": "approved",
          "type": "address"
        },
        {
          "indexed": true,
          "internalType": "uint256",
          "name": "tokenId",
          "type": "uint256"
        }
      ],
      "name": "Approval",
      "type": "event"
    },
    {
      "anonymous": false,
      "inputs": [
        {
          "indexed": true,
          "internalType": "address",
          "name": "owner",
          "type": "address"
        },
        {
          "indexed": true,
          "internalType": "address",
          "name": "operator",
          "type": "address"
        },
        {
          "indexed": false,
          "internalType": "bool",
          "name": "approved",
          "type": "bool"
        }
      ],
      "name": "ApprovalForAll",
      "type": "event"
    },
    {
      "anonymous": false,
      "inputs": [
        {
          "indexed": true,
          "internalType": "address",
          "name": "previousOwner",
          "type": "address"
        },
        {
          "indexed": true,
          "internalType": "address",
          "name": "newOwner",
          "type": "address"
        }
      ],
      "name": "OwnershipTransferred",
      "type": "event"
    },
    {
      "anonymous": false,
      "inputs": [
        {
          "indexed": true,
          "internalType": "uint256",
          "name": "tokenId",
          "type": "uint256"
        },
        {
          "indexed": false,
          "internalType": "string",
          "name": "tokenUri",
          "type": "string"
        }
      ],
      "name": "TokenMintFailed",
      "type": "event"
    },
    {
      "anonymous": false,
      "inputs": [
        {
          "indexed": true,
          "internalType": "address",
          "name": "collectionAddress",
          "type": "address"
        },
        {
          "indexed": true,
          "internalType": "address",
          "name": "recipient",
          "type": "address"
        },
        {
          "indexed": true,
          "internalType": "uint256",
          "name": "tokenId",
          "type": "uint256"
        },
        {
          "indexed": false,
          "internalType": "string",
          "name": "tokenUri",
          "type": "string"
        }
      ],
      "name": "TokenMinted",
      "type": "event"
    },
    {
      "anonymous": false,
      "inputs": [
        {
          "indexed": true,
          "internalType": "address",
          "name": "from",
          "type": "address"
        },
        {
          "indexed": true,
          "internalType": "address",
          "name": "to",
          "type": "address"
        },
        {
          "indexed": true,
          "internalType": "uint256",
          "name": "tokenId",
          "type": "uint256"
        }
      ],
      "name": "Transfer",
      "type": "event"
    },
    {
      "inputs": [
        {
          "internalType": "address",
          "name": "to",
          "type": "address"
        },
        {
          "internalType": "uint256",
          "name": "tokenId",
          "type": "uint256"
        }
      ],
      "name": "approve",
      "outputs": [],
      "stateMutability": "nonpayable",
      "type": "function"
    },
    {
      "inputs": [
        {
          "internalType": "address",
          "name": "owner",
          "type": "address"
        }
      ],
      "name": "balanceOf",
      "outputs": [
        {
          "internalType": "uint256",
          "name": "",
          "type": "uint256"
        }
      ],
      "stateMutability": "view",
      "type": "function"
    },
    {
      "inputs": [
        {
          "internalType": "uint256",
          "name": "tokenId",
          "type": "uint256"
        }
      ],
      "name": "getApproved",
      "outputs": [
        {
          "internalType": "address",
          "name": "",
          "type": "address"
        }
      ],
      "stateMutability": "view",
      "type": "function"
    },
    {
      "inputs": [
        {
          "internalType": "address",
          "name": "owner",
          "type": "address"
        },
        {
          "internalType": "address",
          "name": "operator",
          "type": "address"
        }
      ],
      "name": "isApprovedForAll",
      "outputs": [
        {
          "internalType": "bool",
          "name": "",
          "type": "bool"
        }
      ],
      "stateMutability": "view",
      "type": "function"
    },
    {
      "inputs": [
        {
          "internalType": "uint256",
          "name": "newTokenId",
          "type": "uint256"
        },
        {
          "internalType": "string",
          "name": "newTokenURI",
          "type": "string"
        }
      ],
      "name": "mint",
      "outputs": [],
      "stateMutability": "nonpayable",
      "type": "function"
    },
    {
      "inputs": [],
      "name": "name",
      "outputs": [
        {
          "internalType": "string",
          "name": "",
          "type": "string"
        }
      ],
      "stateMutability": "view",
      "type": "function"
    },
    {
      "inputs": [],
      "name": "owner",
      "outputs": [
        {
          "internalType": "address",
          "name": "",
          "type": "address"
        }
      ],
      "stateMutability": "view",
      "type": "function"
    },
    {
      "inputs": [
        {
          "internalType": "uint256",
          "name": "tokenId",
          "type": "uint256"
        }
      ],
      "name": "ownerOf",
      "outputs": [
        {
          "internalType": "address",
          "name": "",
          "type": "address"
        }
      ],
      "stateMutability": "view",
      "type": "function"
    },
    {
      "inputs": [],
      "name": "renounceOwnership",
      "outputs": [],
      "stateMutability": "nonpayable",
      "type": "function"
    },
    {
      "inputs": [
        {
          "internalType": "address",
          "name": "from",
          "type": "address"
        },
        {
          "internalType": "address",
          "name": "to",
          "type": "address"
        },
        {
          "internalType": "uint256",
          "name": "tokenId",
          "type": "uint256"
        }
      ],
      "name": "safeTransferFrom",
      "outputs": [],
      "stateMutability": "nonpayable",
      "type": "function"
    },
    {
      "inputs": [
        {
          "internalType": "address",
          "name": "from",
          "type": "address"
        },
        {
          "internalType": "address",
          "name": "to",
          "type": "address"
        },
        {
          "internalType": "uint256",
          "name": "tokenId",
          "type": "uint256"
        },
        {
          "internalType": "bytes",
          "name": "_data",
          "type": "bytes"
        }
      ],
      "name": "safeTransferFrom",
      "outputs": [],
      "stateMutability": "nonpayable",
      "type": "function"
    },
    {
      "inputs": [
        {
          "internalType": "address",
          "name": "operator",
          "type": "address"
        },
        {
          "internalType": "bool",
          "name": "approved",
          "type": "bool"
        }
      ],
      "name": "setApprovalForAll",
      "outputs": [],
      "stateMutability": "nonpayable",
      "type": "function"
    },
    {
      "inputs": [
        {
          "internalType": "bytes4",
          "name": "interfaceId",
          "type": "bytes4"
        }
      ],
      "name": "supportsInterface",
      "outputs": [
        {
          "internalType": "bool",
          "name": "",
          "type": "bool"
        }
      ],
      "stateMutability": "view",
      "type": "function"
    },
    {
      "inputs": [],
      "name": "symbol",
      "outputs": [
        {
          "internalType": "string",
          "name": "",
          "type": "string"
        }
      ],
      "stateMutability": "view",
      "type": "function"
    },
    {
      "inputs": [
        {
          "internalType": "uint256",
          "name": "tokenId",
          "type": "uint256"
        }
      ],
      "name": "tokenURI",
      "outputs": [
        {
          "internalType": "string",
          "name": "",
          "type": "string"
        }
      ],
      "stateMutability": "view",
      "type": "function"
    },
    {
      "inputs": [
        {
          "internalType": "address",
          "name": "from",
          "type": "address"
        },
        {
          "internalType": "address",
          "name": "to",
          "type": "address"
        },
        {
          "internalType": "uint256",
          "name": "tokenId",
          "type": "uint256"
        }
      ],
      "name": "transferFrom",
      "outputs": [],
      "stateMutability": "nonpayable",
      "type": "function"
    },
    {
      "inputs": [
        {
          "internalType": "address",
          "name": "newOwner",
          "type": "address"
        }
      ],
      "name": "transferOwnership",
      "outputs": [],
      "stateMutability": "nonpayable",
      "type": "function"
    }
  ],
  "bytecode": "0x60806040523480156200001157600080fd5b506040516200379f3803806200379f833981810160405281019062000037919062000470565b828281600090805190602001906200005192919062000337565b5080600190805190602001906200006a92919062000337565b5050506200008d620000816200012960201b60201c565b6200013160201b60201c565b33600860006101000a81548173ffffffffffffffffffffffffffffffffffffffff021916908373ffffffffffffffffffffffffffffffffffffffff16021790555080600960006101000a81548173ffffffffffffffffffffffffffffffffffffffff021916908373ffffffffffffffffffffffffffffffffffffffff1602179055506200012081620001f760201b60201c565b505050620007d1565b600033905090565b6000600760009054906101000a900473ffffffffffffffffffffffffffffffffffffffff16905081600760006101000a81548173ffffffffffffffffffffffffffffffffffffffff021916908373ffffffffffffffffffffffffffffffffffffffff1602179055508173ffffffffffffffffffffffffffffffffffffffff168173ffffffffffffffffffffffffffffffffffffffff167f8be0079c531659141344cd1fd0a4f28419497f9722a3daafe3b4186f6b6457e060405160405180910390a35050565b620002076200012960201b60201c565b73ffffffffffffffffffffffffffffffffffffffff166200022d6200030d60201b60201c565b73ffffffffffffffffffffffffffffffffffffffff161462000286576040517f08c379a00000000000000000000000000000000000000000000000000000000081526004016200027d9062000568565b60405180910390fd5b600073ffffffffffffffffffffffffffffffffffffffff168173ffffffffffffffffffffffffffffffffffffffff161415620002f9576040517f08c379a0000000000000000000000000000000000000000000000000000000008152600401620002f09062000546565b60405180910390fd5b6200030a816200013160201b60201c565b50565b6000600760009054906101000a900473ffffffffffffffffffffffffffffffffffffffff16905090565b828054620003459062000664565b90600052602060002090601f016020900481019282620003695760008555620003b5565b82601f106200038457805160ff1916838001178555620003b5565b82800160010185558215620003b5579182015b82811115620003b457825182559160200191906001019062000397565b5b509050620003c49190620003c8565b5090565b5b80821115620003e3576000816000905550600101620003c9565b5090565b6000620003fe620003f884620005b3565b6200058a565b9050828152602081018484840111156200041757600080fd5b620004248482856200062e565b509392505050565b6000815190506200043d81620007b7565b92915050565b600082601f8301126200045557600080fd5b815162000467848260208601620003e7565b91505092915050565b6000806000606084860312156200048657600080fd5b600084015167ffffffffffffffff811115620004a157600080fd5b620004af8682870162000443565b935050602084015167ffffffffffffffff811115620004cd57600080fd5b620004db8682870162000443565b9250506040620004ee868287016200042c565b9150509250925092565b600062000507602683620005e9565b915062000514826200073f565b604082019050919050565b60006200052e602083620005e9565b91506200053b826200078e565b602082019050919050565b600060208201905081810360008301526200056181620004f8565b9050919050565b6000602082019050818103600083015262000583816200051f565b9050919050565b600062000596620005a9565b9050620005a482826200069a565b919050565b6000604051905090565b600067ffffffffffffffff821115620005d157620005d0620006ff565b5b620005dc826200072e565b9050602081019050919050565b600082825260208201905092915050565b600062000607826200060e565b9050919050565b600073ffffffffffffffffffffffffffffffffffffffff82169050919050565b60005b838110156200064e57808201518184015260208101905062000631565b838111156200065e576000848401525b50505050565b600060028204905060018216806200067d57607f821691505b60208210811415620006945762000693620006d0565b5b50919050565b620006a5826200072e565b810181811067ffffffffffffffff82111715620006c757620006c6620006ff565b5b80604052505050565b7f4e487b7100000000000000000000000000000000000000000000000000000000600052602260045260246000fd5b7f4e487b7100000000000000000000000000000000000000000000000000000000600052604160045260246000fd5b6000601f19601f8301169050919050565b7f4f776e61626c653a206e6577206f776e657220697320746865207a65726f206160008201527f6464726573730000000000000000000000000000000000000000000000000000602082015250565b7f4f776e61626c653a2063616c6c6572206973206e6f7420746865206f776e6572600082015250565b620007c281620005fa565b8114620007ce57600080fd5b50565b612fbe80620007e16000396000f3fe608060405234801561001057600080fd5b506004361061010b5760003560e01c8063715018a6116100a2578063a22cb46511610071578063a22cb465146102a4578063b88d4fde146102c0578063c87b56dd146102dc578063e985e9c51461030c578063f2fde38b1461033c5761010b565b8063715018a61461024257806377097fc81461024c5780638da5cb5b1461026857806395d89b41146102865761010b565b806323b872dd116100de57806323b872dd146101aa57806342842e0e146101c65780636352211e146101e257806370a08231146102125761010b565b806301ffc9a71461011057806306fdde0314610140578063081812fc1461015e578063095ea7b31461018e575b600080fd5b61012a60048036038101906101259190611ef5565b610358565b60405161013791906123c6565b60405180910390f35b61014861043a565b6040516101559190612405565b60405180910390f35b61017860048036038101906101739190611f47565b6104cc565b604051610185919061235f565b60405180910390f35b6101a860048036038101906101a39190611eb9565b610551565b005b6101c460048036038101906101bf9190611db3565b610669565b005b6101e060048036038101906101db9190611db3565b6106c9565b005b6101fc60048036038101906101f79190611f47565b6106e9565b604051610209919061235f565b60405180910390f35b61022c60048036038101906102279190611d4e565b61079b565b6040516102399190612667565b60405180910390f35b61024a610853565b005b61026660048036038101906102619190611f70565b6108db565b005b6102706109c2565b60405161027d919061235f565b60405180910390f35b61028e6109ec565b60405161029b9190612405565b60405180910390f35b6102be60048036038101906102b99190611e7d565b610a7e565b005b6102da60048036038101906102d59190611e02565b610a94565b005b6102f660048036038101906102f19190611f47565b610af6565b6040516103039190612405565b60405180910390f35b61032660048036038101906103219190611d77565b610c48565b60405161033391906123c6565b60405180910390f35b61035660048036038101906103519190611d4e565b610cdc565b005b60007f80ac58cd000000000000000000000000000000000000000000000000000000007bffffffffffffffffffffffffffffffffffffffffffffffffffffffff1916827bffffffffffffffffffffffffffffffffffffffffffffffffffffffff1916148061042357507f5b5e139f000000000000000000000000000000000000000000000000000000007bffffffffffffffffffffffffffffffffffffffffffffffffffffffff1916827bffffffffffffffffffffffffffffffffffffffffffffffffffffffff1916145b80610433575061043282610dd4565b5b9050919050565b6060600080546104499061288c565b80601f01602080910402602001604051908101604052809291908181526020018280546104759061288c565b80156104c25780601f10610497576101008083540402835291602001916104c2565b820191906000526020600020905b8154815290600101906020018083116104a557829003601f168201915b5050505050905090565b60006104d782610e3e565b610516576040517f08c379a000000000000000000000000000000000000000000000000000000000815260040161050d906125a7565b60405180910390fd5b6004600083815260200190815260200160002060009054906101000a900473ffffffffffffffffffffffffffffffffffffffff169050919050565b600061055c826106e9565b90508073ffffffffffffffffffffffffffffffffffffffff168373ffffffffffffffffffffffffffffffffffffffff1614156105cd576040517f08c379a00000000000000000000000000000000000000000000000000000000081526004016105c490612627565b60405180910390fd5b8073ffffffffffffffffffffffffffffffffffffffff166105ec610eaa565b73ffffffffffffffffffffffffffffffffffffffff16148061061b575061061a81610615610eaa565b610c48565b5b61065a576040517f08c379a0000000000000000000000000000000000000000000000000000000008152600401610651906124e7565b60405180910390fd5b6106648383610eb2565b505050565b61067a610674610eaa565b82610f6b565b6106b9576040517f08c379a00000000000000000000000000000000000000000000000000000000081526004016106b090612647565b60405180910390fd5b6106c4838383611049565b505050565b6106e483838360405180602001604052806000815250610a94565b505050565b6000806002600084815260200190815260200160002060009054906101000a900473ffffffffffffffffffffffffffffffffffffffff169050600073ffffffffffffffffffffffffffffffffffffffff168173ffffffffffffffffffffffffffffffffffffffff161415610792576040517f08c379a000000000000000000000000000000000000000000000000000000000815260040161078990612527565b60405180910390fd5b80915050919050565b60008073ffffffffffffffffffffffffffffffffffffffff168273ffffffffffffffffffffffffffffffffffffffff16141561080c576040517f08c379a000000000000000000000000000000000000000000000000000000000815260040161080390612507565b60405180910390fd5b600360008373ffffffffffffffffffffffffffffffffffffffff1673ffffffffffffffffffffffffffffffffffffffff168152602001908152602001600020549050919050565b61085b610eaa565b73ffffffffffffffffffffffffffffffffffffffff166108796109c2565b73ffffffffffffffffffffffffffffffffffffffff16146108cf576040517f08c379a00000000000000000000000000000000000000000000000000000000081526004016108c6906125c7565b60405180910390fd5b6108d960006112a5565b565b6108e5338461136b565b6109338383838080601f016020809104026020016040519081016040528093929190818152602001838380828437600081840152601f19601f82011690508083019250505050505050611539565b82600960009054906101000a900473ffffffffffffffffffffffffffffffffffffffff1673ffffffffffffffffffffffffffffffffffffffff163073ffffffffffffffffffffffffffffffffffffffff167fc9fee7cd4889f66f10ff8117316524260a5242e88e25e0656dfb3f4196a2191785856040516109b59291906123e1565b60405180910390a4505050565b6000600760009054906101000a900473ffffffffffffffffffffffffffffffffffffffff16905090565b6060600180546109fb9061288c565b80601f0160208091040260200160405190810160405280929190818152602001828054610a279061288c565b8015610a745780601f10610a4957610100808354040283529160200191610a74565b820191906000526020600020905b815481529060010190602001808311610a5757829003601f168201915b5050505050905090565b610a90610a89610eaa565b83836115ad565b5050565b610aa5610a9f610eaa565b83610f6b565b610ae4576040517f08c379a0000000000000000000000000000000000000000000000000000000008152600401610adb90612647565b60405180910390fd5b610af08484848461171a565b50505050565b6060610b0182610e3e565b610b40576040517f08c379a0000000000000000000000000000000000000000000000000000000008152600401610b3790612587565b60405180910390fd5b6000600660008481526020019081526020016000208054610b609061288c565b80601f0160208091040260200160405190810160405280929190818152602001828054610b8c9061288c565b8015610bd95780601f10610bae57610100808354040283529160200191610bd9565b820191906000526020600020905b815481529060010190602001808311610bbc57829003601f168201915b505050505090506000610bea611776565b9050600081511415610c00578192505050610c43565b600082511115610c35578082604051602001610c1d92919061233b565b60405160208183030381529060405292505050610c43565b610c3e8461178d565b925050505b919050565b6000600560008473ffffffffffffffffffffffffffffffffffffffff1673ffffffffffffffffffffffffffffffffffffffff16815260200190815260200160002060008373ffffffffffffffffffffffffffffffffffffffff1673ffffffffffffffffffffffffffffffffffffffff16815260200190815260200160002060009054906101000a900460ff16905092915050565b610ce4610eaa565b73ffffffffffffffffffffffffffffffffffffffff16610d026109c2565b73ffffffffffffffffffffffffffffffffffffffff1614610d58576040517f08c379a0000000000000000000000000000000000000000000000000000000008152600401610d4f906125c7565b60405180910390fd5b600073ffffffffffffffffffffffffffffffffffffffff168173ffffffffffffffffffffffffffffffffffffffff161415610dc8576040517f08c379a0000000000000000000000000000000000000000000000000000000008152600401610dbf90612447565b60405180910390fd5b610dd1816112a5565b50565b60007f01ffc9a7000000000000000000000000000000000000000000000000000000007bffffffffffffffffffffffffffffffffffffffffffffffffffffffff1916827bffffffffffffffffffffffffffffffffffffffffffffffffffffffff1916149050919050565b60008073ffffffffffffffffffffffffffffffffffffffff166002600084815260200190815260200160002060009054906101000a900473ffffffffffffffffffffffffffffffffffffffff1673ffffffffffffffffffffffffffffffffffffffff1614159050919050565b600033905090565b816004600083815260200190815260200160002060006101000a81548173ffffffffffffffffffffffffffffffffffffffff021916908373ffffffffffffffffffffffffffffffffffffffff160217905550808273ffffffffffffffffffffffffffffffffffffffff16610f25836106e9565b73ffffffffffffffffffffffffffffffffffffffff167f8c5be1e5ebec7d5bd14f71427d1e84f3dd0314c0f7b2291e5b200ac8c7c3b92560405160405180910390a45050565b6000610f7682610e3e565b610fb5576040517f08c379a0000000000000000000000000000000000000000000000000000000008152600401610fac906124c7565b60405180910390fd5b6000610fc0836106e9565b90508073ffffffffffffffffffffffffffffffffffffffff168473ffffffffffffffffffffffffffffffffffffffff16148061102f57508373ffffffffffffffffffffffffffffffffffffffff16611017846104cc565b73ffffffffffffffffffffffffffffffffffffffff16145b80611040575061103f8185610c48565b5b91505092915050565b8273ffffffffffffffffffffffffffffffffffffffff16611069826106e9565b73ffffffffffffffffffffffffffffffffffffffff16146110bf576040517f08c379a00000000000000000000000000000000000000000000000000000000081526004016110b6906125e7565b60405180910390fd5b600073ffffffffffffffffffffffffffffffffffffffff168273ffffffffffffffffffffffffffffffffffffffff16141561112f576040517f08c379a000000000000000000000000000000000000000000000000000000000815260040161112690612487565b60405180910390fd5b61113a838383611834565b611145600082610eb2565b6001600360008573ffffffffffffffffffffffffffffffffffffffff1673ffffffffffffffffffffffffffffffffffffffff168152602001908152602001600020600082825461119591906127a2565b925050819055506001600360008473ffffffffffffffffffffffffffffffffffffffff1673ffffffffffffffffffffffffffffffffffffffff16815260200190815260200160002060008282546111ec919061271b565b92505081905550816002600083815260200190815260200160002060006101000a81548173ffffffffffffffffffffffffffffffffffffffff021916908373ffffffffffffffffffffffffffffffffffffffff160217905550808273ffffffffffffffffffffffffffffffffffffffff168473ffffffffffffffffffffffffffffffffffffffff167fddf252ad1be2c89b69c2b068fc378daa952ba7f163c4a11628f55a4df523b3ef60405160405180910390a4505050565b6000600760009054906101000a900473ffffffffffffffffffffffffffffffffffffffff16905081600760006101000a81548173ffffffffffffffffffffffffffffffffffffffff021916908373ffffffffffffffffffffffffffffffffffffffff1602179055508173ffffffffffffffffffffffffffffffffffffffff168173ffffffffffffffffffffffffffffffffffffffff167f8be0079c531659141344cd1fd0a4f28419497f9722a3daafe3b4186f6b6457e060405160405180910390a35050565b600073ffffffffffffffffffffffffffffffffffffffff168273ffffffffffffffffffffffffffffffffffffffff1614156113db576040517f08c379a00000000000000000000000000000000000000000000000000000000081526004016113d290612567565b60405180910390fd5b6113e481610e3e565b15611424576040517f08c379a000000000000000000000000000000000000000000000000000000000815260040161141b90612467565b60405180910390fd5b61143060008383611834565b6001600360008473ffffffffffffffffffffffffffffffffffffffff1673ffffffffffffffffffffffffffffffffffffffff1681526020019081526020016000206000828254611480919061271b565b92505081905550816002600083815260200190815260200160002060006101000a81548173ffffffffffffffffffffffffffffffffffffffff021916908373ffffffffffffffffffffffffffffffffffffffff160217905550808273ffffffffffffffffffffffffffffffffffffffff16600073ffffffffffffffffffffffffffffffffffffffff167fddf252ad1be2c89b69c2b068fc378daa952ba7f163c4a11628f55a4df523b3ef60405160405180910390a45050565b61154282610e3e565b611581576040517f08c379a000000000000000000000000000000000000000000000000000000000815260040161157890612547565b60405180910390fd5b806006600084815260200190815260200160002090805190602001906115a8929190611b90565b505050565b8173ffffffffffffffffffffffffffffffffffffffff168373ffffffffffffffffffffffffffffffffffffffff16141561161c576040517f08c379a0000000000000000000000000000000000000000000000000000000008152600401611613906124a7565b60405180910390fd5b80600560008573ffffffffffffffffffffffffffffffffffffffff1673ffffffffffffffffffffffffffffffffffffffff16815260200190815260200160002060008473ffffffffffffffffffffffffffffffffffffffff1673ffffffffffffffffffffffffffffffffffffffff16815260200190815260200160002060006101000a81548160ff0219169083151502179055508173ffffffffffffffffffffffffffffffffffffffff168373ffffffffffffffffffffffffffffffffffffffff167f17307eab39ab6107e8899845ad3d59bd9653f200f220920489ca2b5937696c318360405161170d91906123c6565b60405180910390a3505050565b611725848484611049565b61173184848484611839565b611770576040517f08c379a000000000000000000000000000000000000000000000000000000000815260040161176790612427565b60405180910390fd5b50505050565b606060405180602001604052806000815250905090565b606061179882610e3e565b6117d7576040517f08c379a00000000000000000000000000000000000000000000000000000000081526004016117ce90612607565b60405180910390fd5b60006117e1611776565b90506000815111611801576040518060200160405280600081525061182c565b8061180b846119d0565b60405160200161181c92919061233b565b6040516020818303038152906040525b915050919050565b505050565b600061185a8473ffffffffffffffffffffffffffffffffffffffff16611b7d565b156119c3578373ffffffffffffffffffffffffffffffffffffffff1663150b7a02611883610eaa565b8786866040518563ffffffff1660e01b81526004016118a5949392919061237a565b602060405180830381600087803b1580156118bf57600080fd5b505af19250505080156118f057506040513d601f19601f820116820180604052508101906118ed9190611f1e565b60015b611973573d8060008114611920576040519150601f19603f3d011682016040523d82523d6000602084013e611925565b606091505b5060008151141561196b576040517f08c379a000000000000000000000000000000000000000000000000000000000815260040161196290612427565b60405180910390fd5b805181602001fd5b63150b7a0260e01b7bffffffffffffffffffffffffffffffffffffffffffffffffffffffff1916817bffffffffffffffffffffffffffffffffffffffffffffffffffffffff1916149150506119c8565b600190505b949350505050565b60606000821415611a18576040518060400160405280600181526020017f30000000000000000000000000000000000000000000000000000000000000008152509050611b78565b600082905060005b60008214611a4a578080611a33906128ef565b915050600a82611a439190612771565b9150611a20565b60008167ffffffffffffffff811115611a8c577f4e487b7100000000000000000000000000000000000000000000000000000000600052604160045260246000fd5b6040519080825280601f01601f191660200182016040528015611abe5781602001600182028036833780820191505090505b5090505b60008514611b7157600182611ad791906127a2565b9150600a85611ae69190612938565b6030611af2919061271b565b60f81b818381518110611b2e577f4e487b7100000000000000000000000000000000000000000000000000000000600052603260045260246000fd5b60200101907effffffffffffffffffffffffffffffffffffffffffffffffffffffffffffff1916908160001a905350600a85611b6a9190612771565b9450611ac2565b8093505050505b919050565b600080823b905060008111915050919050565b828054611b9c9061288c565b90600052602060002090601f016020900481019282611bbe5760008555611c05565b82601f10611bd757805160ff1916838001178555611c05565b82800160010185558215611c05579182015b82811115611c04578251825591602001919060010190611be9565b5b509050611c129190611c16565b5090565b5b80821115611c2f576000816000905550600101611c17565b5090565b6000611c46611c41846126a7565b612682565b905082815260208101848484011115611c5e57600080fd5b611c6984828561284a565b509392505050565b600081359050611c8081612f2c565b92915050565b600081359050611c9581612f43565b92915050565b600081359050611caa81612f5a565b92915050565b600081519050611cbf81612f5a565b92915050565b600082601f830112611cd657600080fd5b8135611ce6848260208601611c33565b91505092915050565b60008083601f840112611d0157600080fd5b8235905067ffffffffffffffff811115611d1a57600080fd5b602083019150836001820283011115611d3257600080fd5b9250929050565b600081359050611d4881612f71565b92915050565b600060208284031215611d6057600080fd5b6000611d6e84828501611c71565b91505092915050565b60008060408385031215611d8a57600080fd5b6000611d9885828601611c71565b9250506020611da985828601611c71565b9150509250929050565b600080600060608486031215611dc857600080fd5b6000611dd686828701611c71565b9350506020611de786828701611c71565b9250506040611df886828701611d39565b9150509250925092565b60008060008060808587031215611e1857600080fd5b6000611e2687828801611c71565b9450506020611e3787828801611c71565b9350506040611e4887828801611d39565b925050606085013567ffffffffffffffff811115611e6557600080fd5b611e7187828801611cc5565b91505092959194509250565b60008060408385031215611e9057600080fd5b6000611e9e85828601611c71565b9250506020611eaf85828601611c86565b9150509250929050565b60008060408385031215611ecc57600080fd5b6000611eda85828601611c71565b9250506020611eeb85828601611d39565b9150509250929050565b600060208284031215611f0757600080fd5b6000611f1584828501611c9b565b91505092915050565b600060208284031215611f3057600080fd5b6000611f3e84828501611cb0565b91505092915050565b600060208284031215611f5957600080fd5b6000611f6784828501611d39565b91505092915050565b600080600060408486031215611f8557600080fd5b6000611f9386828701611d39565b935050602084013567ffffffffffffffff811115611fb057600080fd5b611fbc86828701611cef565b92509250509250925092565b611fd1816127d6565b82525050565b611fe0816127e8565b82525050565b6000611ff1826126d8565b611ffb81856126ee565b935061200b818560208601612859565b61201481612a25565b840191505092915050565b600061202b83856126ff565b935061203883858461284a565b61204183612a25565b840190509392505050565b6000612057826126e3565b61206181856126ff565b9350612071818560208601612859565b61207a81612a25565b840191505092915050565b6000612090826126e3565b61209a8185612710565b93506120aa818560208601612859565b80840191505092915050565b60006120c36032836126ff565b91506120ce82612a36565b604082019050919050565b60006120e66026836126ff565b91506120f182612a85565b604082019050919050565b6000612109601c836126ff565b915061211482612ad4565b602082019050919050565b600061212c6024836126ff565b915061213782612afd565b604082019050919050565b600061214f6019836126ff565b915061215a82612b4c565b602082019050919050565b6000612172602c836126ff565b915061217d82612b75565b604082019050919050565b60006121956038836126ff565b91506121a082612bc4565b604082019050919050565b60006121b8602a836126ff565b91506121c382612c13565b604082019050919050565b60006121db6029836126ff565b91506121e682612c62565b604082019050919050565b60006121fe602e836126ff565b915061220982612cb1565b604082019050919050565b60006122216020836126ff565b915061222c82612d00565b602082019050919050565b60006122446031836126ff565b915061224f82612d29565b604082019050919050565b6000612267602c836126ff565b915061227282612d78565b604082019050919050565b600061228a6020836126ff565b915061229582612dc7565b602082019050919050565b60006122ad6029836126ff565b91506122b882612df0565b604082019050919050565b60006122d0602f836126ff565b91506122db82612e3f565b604082019050919050565b60006122f36021836126ff565b91506122fe82612e8e565b604082019050919050565b60006123166031836126ff565b915061232182612edd565b604082019050919050565b61233581612840565b82525050565b60006123478285612085565b91506123538284612085565b91508190509392505050565b60006020820190506123746000830184611fc8565b92915050565b600060808201905061238f6000830187611fc8565b61239c6020830186611fc8565b6123a9604083018561232c565b81810360608301526123bb8184611fe6565b905095945050505050565b60006020820190506123db6000830184611fd7565b92915050565b600060208201905081810360008301526123fc81848661201f565b90509392505050565b6000602082019050818103600083015261241f818461204c565b905092915050565b60006020820190508181036000830152612440816120b6565b9050919050565b60006020820190508181036000830152612460816120d9565b9050919050565b60006020820190508181036000830152612480816120fc565b9050919050565b600060208201905081810360008301526124a08161211f565b9050919050565b600060208201905081810360008301526124c081612142565b9050919050565b600060208201905081810360008301526124e081612165565b9050919050565b6000602082019050818103600083015261250081612188565b9050919050565b60006020820190508181036000830152612520816121ab565b9050919050565b60006020820190508181036000830152612540816121ce565b9050919050565b60006020820190508181036000830152612560816121f1565b9050919050565b6000602082019050818103600083015261258081612214565b9050919050565b600060208201905081810360008301526125a081612237565b9050919050565b600060208201905081810360008301526125c08161225a565b9050919050565b600060208201905081810360008301526125e08161227d565b9050919050565b60006020820190508181036000830152612600816122a0565b9050919050565b60006020820190508181036000830152612620816122c3565b9050919050565b60006020820190508181036000830152612640816122e6565b9050919050565b6000602082019050818103600083015261266081612309565b9050919050565b600060208201905061267c600083018461232c565b92915050565b600061268c61269d565b905061269882826128be565b919050565b6000604051905090565b600067ffffffffffffffff8211156126c2576126c16129f6565b5b6126cb82612a25565b9050602081019050919050565b600081519050919050565b600081519050919050565b600082825260208201905092915050565b600082825260208201905092915050565b600081905092915050565b600061272682612840565b915061273183612840565b9250827fffffffffffffffffffffffffffffffffffffffffffffffffffffffffffffffff0382111561276657612765612969565b5b828201905092915050565b600061277c82612840565b915061278783612840565b92508261279757612796612998565b5b828204905092915050565b60006127ad82612840565b91506127b883612840565b9250828210156127cb576127ca612969565b5b828203905092915050565b60006127e182612820565b9050919050565b60008115159050919050565b60007fffffffff0000000000000000000000000000000000000000000000000000000082169050919050565b600073ffffffffffffffffffffffffffffffffffffffff82169050919050565b6000819050919050565b82818337600083830152505050565b60005b8381101561287757808201518184015260208101905061285c565b83811115612886576000848401525b50505050565b600060028204905060018216806128a457607f821691505b602082108114156128b8576128b76129c7565b5b50919050565b6128c782612a25565b810181811067ffffffffffffffff821117156128e6576128e56129f6565b5b80604052505050565b60006128fa82612840565b91507fffffffffffffffffffffffffffffffffffffffffffffffffffffffffffffffff82141561292d5761292c612969565b5b600182019050919050565b600061294382612840565b915061294e83612840565b92508261295e5761295d612998565b5b828206905092915050565b7f4e487b7100000000000000000000000000000000000000000000000000000000600052601160045260246000fd5b7f4e487b7100000000000000000000000000000000000000000000000000000000600052601260045260246000fd5b7f4e487b7100000000000000000000000000000000000000000000000000000000600052602260045260246000fd5b7f4e487b7100000000000000000000000000000000000000000000000000000000600052604160045260246000fd5b6000601f19601f8301169050919050565b7f4552433732313a207472616e7366657220746f206e6f6e20455243373231526560008201527f63656976657220696d706c656d656e7465720000000000000000000000000000602082015250565b7f4f776e61626c653a206e6577206f776e657220697320746865207a65726f206160008201527f6464726573730000000000000000000000000000000000000000000000000000602082015250565b7f4552433732313a20746f6b656e20616c7265616479206d696e74656400000000600082015250565b7f4552433732313a207472616e7366657220746f20746865207a65726f2061646460008201527f7265737300000000000000000000000000000000000000000000000000000000602082015250565b7f4552433732313a20617070726f766520746f2063616c6c657200000000000000600082015250565b7f4552433732313a206f70657261746f7220717565727920666f72206e6f6e657860008201527f697374656e7420746f6b656e0000000000000000000000000000000000000000602082015250565b7f4552433732313a20617070726f76652063616c6c6572206973206e6f74206f7760008201527f6e6572206e6f7220617070726f76656420666f7220616c6c0000000000000000602082015250565b7f4552433732313a2062616c616e636520717565727920666f7220746865207a6560008201527f726f206164647265737300000000000000000000000000000000000000000000602082015250565b7f4552433732313a206f776e657220717565727920666f72206e6f6e657869737460008201527f656e7420746f6b656e0000000000000000000000000000000000000000000000602082015250565b7f45524337323155524953746f726167653a2055524920736574206f66206e6f6e60008201527f6578697374656e7420746f6b656e000000000000000000000000000000000000602082015250565b7f4552433732313a206d696e7420746f20746865207a65726f2061646472657373600082015250565b7f45524337323155524953746f726167653a2055524920717565727920666f722060008201527f6e6f6e6578697374656e7420746f6b656e000000000000000000000000000000602082015250565b7f4552433732313a20617070726f76656420717565727920666f72206e6f6e657860008201527f697374656e7420746f6b656e0000000000000000000000000000000000000000602082015250565b7f4f776e61626c653a2063616c6c6572206973206e6f7420746865206f776e6572600082015250565b7f4552433732313a207472616e73666572206f6620746f6b656e2074686174206960008201527f73206e6f74206f776e0000000000000000000000000000000000000000000000602082015250565b7f4552433732314d657461646174613a2055524920717565727920666f72206e6f60008201527f6e6578697374656e7420746f6b656e0000000000000000000000000000000000602082015250565b7f4552433732313a20617070726f76616c20746f2063757272656e74206f776e6560008201527f7200000000000000000000000000000000000000000000000000000000000000602082015250565b7f4552433732313a207472616e736665722063616c6c6572206973206e6f74206f60008201527f776e6572206e6f7220617070726f766564000000000000000000000000000000602082015250565b612f35816127d6565b8114612f4057600080fd5b50565b612f4c816127e8565b8114612f5757600080fd5b50565b612f63816127f4565b8114612f6e57600080fd5b50565b612f7a81612840565b8114612f8557600080fd5b5056fea2646970667358221220e7a7dd8f695dc0f22be9dc1e287edeccbe461649a3a59762a9b6c6b6032ef16c64736f6c63430008040033",
  "linkReferences": {},
  "deployedLinkReferences": {}
}